:020000040800F2
:10000000A006002089010008910100089301000862
:100010009501000897010008990100080000000000
:100020000000000000000000000000009B0100082C
:100030009D010008000000009F010008A1010008C8
:10004000A3010008A3010008A3010008A301000800
:10005000A3010008A3010008A3010008A3010008F0
:10006000A3010008A3010008A3010008A3010008E0
:10007000A3010008A3010008A3010008A3010008D0
:10008000A3010008A3010008A3010008A3010008C0
:10009000A3010008A3010008A3010008A3010008B0
:1000A000A3010008A3010008A3010008A3010008A0
:1000B000A3010008A3010008A3010008A301000890
:1000C000A3010008A3010008A3010008A301000880
:1000D000A3010008A3010008A3010008A301000870
:1000E000A3010008A3010008A301000800F002F822
:1000F00000F03AF80AA090E8000C82448344AAF188
:100100000107DA4501D100F02FF8AFF2090EBAE885
:100110000F0013F0010F18BFFB1A43F0010318473B
:100120002C0A00004C0A0000103A24BF78C878C19D
:10013000FAD8520724BF30C830C144BF04680C60ED
:10014000704700000023002400250026103A28BF35
:1001500078C1FBD8520728BF30C148BF0B60704739
:100160001FB51FBD10B510BD00F031F81146FFF7E7
:10017000F7FF00F0C5FC00F04FF803B4FFF7F2FF03
:1001800003BC00F057F800000948804709480047C1
:10019000FEE7FEE7FEE7FEE7FEE7FEE7FEE7FEE737
:1001A000FEE7FEE704480549054A064B7047000094
:1001B0000D030008ED000008A0000020A0060020AC
:1001C000A0020020A00200207047704770477546CB
:1001D00000F02CF8AE4605006946534620F00700B3
:1001E000854618B020B5FFF7DDFFBDE820404FF091
:1001F00000064FF000074FF000084FF0000BAC4630
:10020000ACE8C009ACE8C009ACE8C009ACE8C0097A
:1002100021F007018D46704710B50446AFF300800A
:100220002046BDE81040FFF7A8BF00000048704717
:100230004000002001491820ABBEFEE72600020066
:100240007047000080B500F001F880BD82B041F237
:1002500004000021C4F202000191009150F8041C36
:1002600041F4803140F8041C50F8041C01F40031C2
:100270000091019901310191009919B90199B1F5E4
:10028000A06FF1D150F8041C890354BF0021012153
:1002900000910099012936D142F20001C4F2020115
:1002A0000A6842F010020A600A6822F007020A6037
:1002B0000A6842F002020A60016801600168016098
:1002C000016841F480610160016821F47C110160E2
:1002D000016841F4E811016050F8041C41F080719C
:1002E00040F8041C50F8041C8901FBD5016821F07A
:1002F00003010160016841F002010160016801F041
:100300000C010829FAD102B07047000080B541F213
:100310000000C4F202000168002241F00101016006
:100320004168CFF6FF021140416001684FF6FF724D
:10033000CFF6F66211400160016821F4802101606E
:10034000416821F4FE0141604FF41F018160FFF715
:1003500079FF4EF60850CEF200004FF000610160C8
:1003600080BD0000002848BF704700F01F01012237
:1003700002FA01F14EF200124009CEF2000242F8F8
:100380002010704780B5082918D3032A62D8DFE807
:1003900002F00262798240F20002C2F2000252F8D8
:1003A000211001238A1C033103FA02F203FA01F13E
:1003B0004368114323EA0101416080BD032A88BFDD
:1003C00080BDDFE802F002152C3A40F20002C2F2D2
:1003D000000252F8211001238A1C033103FA02F2B1
:1003E00003FA01F10368114323EA0101016080BDB2
:1003F00040F2000EC2F2000E5EF821304FF0010C08
:10040000033302680CFA03F39A4302605EF821108A
:10041000026802310CFA01F11143016080BD40F223
:100420000002C2F2000252F82110022202310368D7
:1004300002FA01F11943016080BD40F20002C2F2EC
:10044000000252F8211003220231036802FA01F17E
:100450001943016080BD40F2000EC2F2000E5EF84A
:1004600021304FF0010C033342680CFA03F39A4336
:1004700042605EF82110426802310CFA01F111432A
:10048000416080BD40F20002C2F2000252F8211029
:100490000222023107E040F20002C2F2000252F8EA
:1004A000211003220231436802FA01F1194341602D
:1004B00080BD000040F2000CC2F2000C5CF821C0CC
:1004C00009290DD3022B19D101210CF1010301FAE5
:1004D0000CF299404368114323EA010141607047DF
:1004E000022B11D101210CF1010301FA0CF2994008
:1004F0000368114323EA010101607047416802FA71
:100500000CF2114341607047016802FA0CF211438A
:100510000160704710B541F2180CC4F2020CDCF80F
:10052000003043F00103CCF80030A0F18043A3F584
:100530008A3E0EF540634FEAB32340F2080C062BC7
:10054000C4F2010C00F24382DFE813F0070031002F
:100550008C00E40045019F01F2010F2918D8DFE863
:1005600001F0080808080C0C0C0C101010101414E2
:1005700014140023CCF800300AE00023CCF8043037
:1005800006E00023CCF8083002E00023CCF80C3061
:100590000EF500634FEAB323052B00F21882DFE863
:1005A00013F006006100B9001A017401C7010F2998
:1005B0004AD8DFE801F0080C10151A1E22272C304B
:1005C00034393E4042450123CCF800303CE0102352
:1005D000CCF8003038E04FF48073CCF8003033E0D2
:1005E0004FF48053CCF800302EE00123CCF80430D7
:1005F0002AE01023CCF8043026E04FF48073CCF8C6
:10060000043021E04FF48053CCF804301CE0012387
:10061000CCF8083018E01023CCF8083014E04FF480
:100620008073CCF808300FE04FF48053CCF80830DA
:100630000AE0012306E0102304E04FF4807301E098
:100640004FF48053CCF80C300EF580634FEAB3239F
:10065000042B00F2BC81DFE813F005005D00BE0052
:1006600018016B010F294AD8DFE801F0080C1015BA
:100670001A1E22272C3034393E4042450223CCF842
:1006800000303CE02023CCF8003038E04FF4007319
:10069000CCF8003033E04FF40053CCF800302EE0BB
:1006A0000223CCF804302AE02023CCF8043026E0E2
:1006B0004FF40073CCF8043021E04FF40053CCF831
:1006C00004301CE00223CCF8083018E02023CCF8DA
:1006D000083014E04FF40073CCF808300FE04FF40A
:1006E0000053CCF808300AE0022306E0202304E09F
:1006F0004FF4007301E04FF40053CCF80C304FEA94
:10070000BE23032B00F26381DFE813F004006500D1
:10071000BF0012010F294AD8DFE801F0080C1015BC
:100720001A1E22272C3034393E4042450323CCF890
:1007300000303CE03023CCF8003038E04FF4407318
:10074000CCF8003033E04FF44053CCF800302EE0CA
:100750000323CCF804302AE03023CCF8043026E020
:100760004FF44073CCF8043021E04FF44053CCF800
:1007700004301CE00323CCF8083018E03023CCF818
:10078000083014E04FF44073CCF808300FE04FF419
:100790004053CCF808300AE0032306E0302304E09D
:1007A0004FF4407301E04FF44053CCF80C3042F268
:1007B0000003C4F20103984200F0BA8041F60043FE
:1007C000C4F20103984260D041F60003C4F2010371
:1007D000984240F0FC800F294AD8DFE801F0080C6D
:1007E00010151A1E22272C3034393E40424504236E
:1007F000CCF800303CE04023CCF8003038E04FF437
:100800008063CCF8003033E04FF48043CCF8003004
:100810002EE00423CCF804302AE04023CCF8043046
:1008200026E04FF48063CCF8043021E04FF480439D
:10083000CCF804301CE00423CCF8083018E0402346
:10084000CCF8083014E04FF48063CCF808300FE0A7
:100850004FF48043CCF808300AE0042306E040233C
:1008600004E04FF4806301E04FF48043CCF80C3097
:1008700042F20003C4F20103984259D041F600430A
:10088000C4F20103984240F0A2800F294AD8DFE861
:1008900001F0080C10151A1E22272C3034393E4066
:1008A00042450523CCF800303CE05023CCF8003022
:1008B00038E04FF4A063CCF8003033E04FF4A043AD
:1008C000CCF800302EE00523CCF804302AE0502389
:1008D000CCF8043026E04FF4A063CCF8043021E0DB
:1008E0004FF4A043CCF804301CE00523CCF80830CA
:1008F00018E05023CCF8083014E04FF4A063CCF893
:1009000008300FE04FF4A043CCF808300AE005238C
:1009100006E0502304E04FF4A06301E04FF4A0434D
:10092000CCF80C3042F20003C4F2010398424ED1DD
:100930000F294CD80FF20400DFE801F0080C101565
:100940001A1E22272C3034393E4042450620CCF86E
:1009500000003CE06020CCF8000038E04FF4C060BC
:10096000CCF8000033E04FF4C040CCF800002EE09B
:100970000620CCF804002AE06020CCF8040026E031
:100980004FF4C060CCF8040021E04FF4C040CCF834
:1009900004001CE00620CCF8080018E06020CCF829
:1009A000080014E04FF4C060CCF808000FE04FF4EA
:1009B000C040CCF808000AE0062006E0602004E011
:1009C0004FF4C06001E04FF4C040CCF80C00022AA4
:1009D0000CD0012A1AD0002A18BF10BD0120DCF863
:1009E000002488401043CCF8000410BD40F20C42B3
:1009F000C4F2010201201368884043EA000111603B
:100A0000DCF800140843CCF8000410BD40F20C429E
:100A1000C4F201020120136888401843106010BD21
:100A200080B540F20043C4F201034FF0010C1A6894
:100A30000CFA00F0104318600846FFF793FC80BDE5
:100A4000F0B581B00646A0F18040A0F58430144690
:100A5000079D4FEAB022032A0F463BD841F2180007
:100A6000C4F20200DFE802F002182832016841F205
:100A70000042C4F2010241F004019642016025D017
:100A800041F20001C4F201018E4215D040F600414E
:100A9000C4F201018E421DD1016841F20042C4F24C
:100AA000010241F00801964201600FD041F20001BD
:100AB000C4F201018E420DD1016841F20042C4F23C
:100AC000010241F010019642016003D1016841F03A
:100AD00020010160304639461A46FFF753FC304684
:100AE00039462A462346FFF7E5FC01B0F0BD000079
:100AF000002A08BF1031012202FA01F1016170479A
:100B000084B041F20004C4F201044FF0030C20460B
:100B10000D2101220023CDF804C0FFF791FFA4F5B9
:100B2000806004210022FFF7F5FC04200A21FFF772
:100B300077FF00BF20460D210022FFF7D9FF204696
:100B40000D210122FFF7D4FFF4E700006C0B000831
:100B5000000000204000000028010008AC0B000845
:100B60004000002060060000440100080000000072
:100B700004000000080000000C000000100000004D
:100B800014000000180000001C000000000000001D
:100B900004000000080000000C000000100000002D
:0C0BA00014000000180000001C00000001
:040000050800018965
:00000001FF
